{"abi":[{"type":"function","name":"addTrustedForwarder","inputs":[{"name":"_tf","type":"address","internalType":"address"}],"outputs":[],"stateMutability":"nonpayable"},{"type":"function","name":"isTrustedForwarder","inputs":[{"name":"forwarder","type":"address","internalType":"address"}],"outputs":[{"name":"","type":"bool","internalType":"bool"}],"stateMutability":"view"},{"type":"function","name":"owner","inputs":[],"outputs":[{"name":"","type":"address","internalType":"address"}],"stateMutability":"view"},{"type":"function","name":"removeTrustedForwarder","inputs":[{"name":"_tf","type":"address","internalType":"address"}],"outputs":[],"stateMutability":"nonpayable"},{"type":"function","name":"renounceOwnership","inputs":[],"outputs":[],"stateMutability":"nonpayable"},{"type":"function","name":"setBiconomyTrustedForwarder","inputs":[{"name":"_biconomyForwarder","type":"address","internalType":"address"}],"outputs":[],"stateMutability":"nonpayable"},{"type":"function","name":"transferOwnership","inputs":[{"name":"newOwner","type":"address","internalType":"address"}],"outputs":[],"stateMutability":"nonpayable"},{"type":"function","name":"trustedForwarders","inputs":[{"name":"","type":"address","internalType":"address"}],"outputs":[{"name":"","type":"bool","internalType":"bool"}],"stateMutability":"view"},{"type":"event","name":"Initialized","inputs":[{"name":"version","type":"uint8","indexed":false,"internalType":"uint8"}],"anonymous":false},{"type":"event","name":"OwnershipTransferred","inputs":[{"name":"previousOwner","type":"address","indexed":true,"internalType":"address"},{"name":"newOwner","type":"address","indexed":true,"internalType":"address"}],"anonymous":false}],"bytecode":{"object":"0x608060405234801561001057600080fd5b50610391806100206000396000f3fe608060405234801561001057600080fd5b50600436106100885760003560e01c8063715018a61161005b578063715018a6146101195780638da5cb5b14610121578063e807f3b61461008d578063f2fde38b1461013c57600080fd5b806326d006681461008d5780633751d89c146100a257806354776bb9146100b5578063572b6c05146100ed575b600080fd5b6100a061009b36600461032b565b61014f565b005b6100a06100b036600461032b565b61017b565b6100d86100c336600461032b565b60656020526000908152604090205460ff1681565b60405190151581526020015b60405180910390f35b6100d86100fb36600461032b565b6001600160a01b031660009081526065602052604090205460ff1690565b6100a06101a4565b6033546040516001600160a01b0390911681526020016100e4565b6100a061014a36600461032b565b6101b8565b610157610236565b6001600160a01b03166000908152606560205260409020805460ff19166001179055565b610183610236565b6001600160a01b03166000908152606560205260409020805460ff19169055565b6101ac610236565b6101b660006102af565b565b6101c0610236565b6001600160a01b03811661022a5760405162461bcd60e51b815260206004820152602660248201527f4f776e61626c653a206e6577206f776e657220697320746865207a65726f206160448201526564647265737360d01b60648201526084015b60405180910390fd5b610233816102af565b50565b61023e610301565b6001600160a01b03166102596033546001600160a01b031690565b6001600160a01b0316146101b65760405162461bcd60e51b815260206004820181905260248201527f4f776e61626c653a2063616c6c6572206973206e6f7420746865206f776e65726044820152606401610221565b603380546001600160a01b038381166001600160a01b0319831681179093556040519116919082907f8be0079c531659141344cd1fd0a4f28419497f9722a3daafe3b4186f6b6457e090600090a35050565b3360009081526065602052604081205460ff1615610326575060131936013560601c90565b503390565b60006020828403121561033d57600080fd5b81356001600160a01b038116811461035457600080fd5b939250505056fea26469706673582212206657cbb4f605f96cf97c6c6f8540cb46f1bb9c7d003111ec1d19a8046df5d04864736f6c634300080b0033","linkReferences":{}},"methodIdentifiers":{"addTrustedForwarder(address)":"26d00668","isTrustedForwarder(address)":"572b6c05","owner()":"8da5cb5b","removeTrustedForwarder(address)":"3751d89c","renounceOwnership()":"715018a6","setBiconomyTrustedForwarder(address)":"e807f3b6","transferOwnership(address)":"f2fde38b","trustedForwarders(address)":"54776bb9"},"id":0}