{"abi":[{"type":"function","name":"AconomyNFTLendBorrowFee","inputs":[],"outputs":[{"name":"","type":"uint16","internalType":"uint16"}],"stateMutability":"view"},{"type":"function","name":"AconomyPiMarketFee","inputs":[],"outputs":[{"name":"","type":"uint16","internalType":"uint16"}],"stateMutability":"view"},{"type":"function","name":"AconomyPoolFee","inputs":[],"outputs":[{"name":"","type":"uint16","internalType":"uint16"}],"stateMutability":"view"},{"type":"function","name":"_AconomyNFTLendBorrowFee","inputs":[],"outputs":[{"name":"","type":"uint16","internalType":"uint16"}],"stateMutability":"view"},{"type":"function","name":"_AconomyPiMarketFee","inputs":[],"outputs":[{"name":"","type":"uint16","internalType":"uint16"}],"stateMutability":"view"},{"type":"function","name":"_AconomyPoolFee","inputs":[],"outputs":[{"name":"","type":"uint16","internalType":"uint16"}],"stateMutability":"view"},{"type":"function","name":"getAconomyOwnerAddress","inputs":[],"outputs":[{"name":"","type":"address","internalType":"address"}],"stateMutability":"view"},{"type":"function","name":"owner","inputs":[],"outputs":[{"name":"","type":"address","internalType":"address"}],"stateMutability":"view"},{"type":"function","name":"renounceOwnership","inputs":[],"outputs":[],"stateMutability":"nonpayable"},{"type":"function","name":"setAconomyNFTLendBorrowFee","inputs":[{"name":"newFee","type":"uint16","internalType":"uint16"}],"outputs":[],"stateMutability":"nonpayable"},{"type":"function","name":"setAconomyPiMarketFee","inputs":[{"name":"newFee","type":"uint16","internalType":"uint16"}],"outputs":[],"stateMutability":"nonpayable"},{"type":"function","name":"setAconomyPoolFee","inputs":[{"name":"newFee","type":"uint16","internalType":"uint16"}],"outputs":[],"stateMutability":"nonpayable"},{"type":"function","name":"transferOwnership","inputs":[{"name":"newOwner","type":"address","internalType":"address"}],"outputs":[],"stateMutability":"nonpayable"},{"type":"event","name":"OwnershipTransferred","inputs":[{"name":"previousOwner","type":"address","indexed":true,"internalType":"address"},{"name":"newOwner","type":"address","indexed":true,"internalType":"address"}],"anonymous":false},{"type":"event","name":"SetAconomyNFTLendBorrowFee","inputs":[{"name":"newFee","type":"uint16","indexed":false,"internalType":"uint16"},{"name":"oldFee","type":"uint16","indexed":false,"internalType":"uint16"}],"anonymous":false},{"type":"event","name":"SetAconomyPiMarketFee","inputs":[{"name":"newFee","type":"uint16","indexed":false,"internalType":"uint16"},{"name":"oldFee","type":"uint16","indexed":false,"internalType":"uint16"}],"anonymous":false},{"type":"event","name":"SetAconomyPoolFee","inputs":[{"name":"newFee","type":"uint16","indexed":false,"internalType":"uint16"},{"name":"oldFee","type":"uint16","indexed":false,"internalType":"uint16"}],"anonymous":false}],"bytecode":{"object":"0x608060405234801561001057600080fd5b5061001a3361001f565b61006f565b600080546001600160a01b038381166001600160a01b0319831681178455604051919092169283917f8be0079c531659141344cd1fd0a4f28419497f9722a3daafe3b4186f6b6457e09190a35050565b6105368061007e6000396000f3fe608060405234801561001057600080fd5b50600436106100cf5760003560e01c8063a236b1ef1161008c578063d6aa3abd11610066578063d6aa3abd146101a4578063e9d011cb146101b7578063f2fde38b146101ca578063fa31eb49146101dd57600080fd5b8063a236b1ef14610169578063b10405671461017c578063c99803491461018f57600080fd5b8063054cdf7f146100d457806340756a10146100e95780634dd9ccb114610116578063715018a61461013b5780638bb98519146101435780638da5cb5b14610158575b600080fd5b6100e76100e23660046104ac565b6101f0565b005b6000546100fe90600160b01b900461ffff1681565b60405161ffff90911681526020015b60405180910390f35b6000546001600160a01b03165b6040516001600160a01b03909116815260200161010d565b6100e7610277565b6000546100fe90600160c01b900461ffff1681565b6000546001600160a01b0316610123565b600054600160b01b900461ffff166100fe565b6100e761018a3660046104ac565b61028b565b6000546100fe90600160a01b900461ffff1681565b6100e76101b23660046104ac565b610309565b600054600160c01b900461ffff166100fe565b6100e76101d83660046104d7565b610387565b600054600160a01b900461ffff166100fe565b6101f8610402565b60005461ffff828116600160c01b9092041614156102135750565b6000805461ffff838116600160c01b81810261ffff60c01b1985161790945560408051918252939092041660208201819052917fdcc7874944cd56ecfce03f4fd7beee380520c0514026b37adae22a33b25449d791015b60405180910390a1505b50565b61027f610402565b610289600061045c565b565b610293610402565b60005461ffff828116600160a01b9092041614156102ae5750565b6000805461ffff838116600160a01b81810261ffff60a01b1985161790945560408051918252939092041660208201819052917fd945a988eead48371e717ffc056fe0a2f83a034baf41bf33d832c449bb8f78bb910161026a565b610311610402565b60005461ffff828116600160b01b90920416141561032c5750565b6000805461ffff838116600160b01b81810261ffff60b01b1985161790945560408051918252939092041660208201819052917f7d87a8acafadf8ed4ef9e4badd1611cfc8be9ab19a53423e9f57dce825377b23910161026a565b61038f610402565b6001600160a01b0381166103f95760405162461bcd60e51b815260206004820152602660248201527f4f776e61626c653a206e6577206f776e657220697320746865207a65726f206160448201526564647265737360d01b60648201526084015b60405180910390fd5b6102748161045c565b6000546001600160a01b031633146102895760405162461bcd60e51b815260206004820181905260248201527f4f776e61626c653a2063616c6c6572206973206e6f7420746865206f776e657260448201526064016103f0565b600080546001600160a01b038381166001600160a01b0319831681178455604051919092169283917f8be0079c531659141344cd1fd0a4f28419497f9722a3daafe3b4186f6b6457e09190a35050565b6000602082840312156104be57600080fd5b813561ffff811681146104d057600080fd5b9392505050565b6000602082840312156104e957600080fd5b81356001600160a01b03811681146104d057600080fdfea26469706673582212205bc0bc1063b362e380064d9e2b74e90e174458954897aafc185d2b1f1388714b64736f6c634300080b0033","linkReferences":{}},"methodIdentifiers":{"AconomyNFTLendBorrowFee()":"e9d011cb","AconomyPiMarketFee()":"a236b1ef","AconomyPoolFee()":"fa31eb49","_AconomyNFTLendBorrowFee()":"8bb98519","_AconomyPiMarketFee()":"40756a10","_AconomyPoolFee()":"c9980349","getAconomyOwnerAddress()":"4dd9ccb1","owner()":"8da5cb5b","renounceOwnership()":"715018a6","setAconomyNFTLendBorrowFee(uint16)":"054cdf7f","setAconomyPiMarketFee(uint16)":"d6aa3abd","setAconomyPoolFee(uint16)":"b1040567","transferOwnership(address)":"f2fde38b"},"id":1}